:100000000C9434000C943E000C943E000C943E0082
:100010000C943E000C943E000C943E000C943E0068
:100020000C943E000C943E000C943E000C943E0058
:100030000C943E000C943E000C943E000C943E0048
:100040000C943E000C943E000C943E000C943E0038
:100050000C943E000C943E000C943E000C943E0028
:100060000C943E000C943E0011241FBECFEFD8E04C
:10007000DEBFCDBF0E9440000C9479000C940000BC
:100080008AB180648AB985B5816085BD85B5826095
:1000900085BD84B5826084BD84B5816084BD84B52E
:1000A000806884BD80E090E00BC087BD2FEF30E713
:1000B00042E0215030404040E1F700C0000001968E
:1000C0008F3F910591F38CF387B58F3F69F010C096
:1000D00087BD2FEF39EF40E0215030404040E1F73D
:1000E00000C00000019702C08FEF90E0992384F7D1
:0600F000FFCFF894FFCFE2
:00000001FF
