:100000000C9434000C943E000C943E000C943E0082
:100010000C943E000C943E000C943E000C943E0068
:100020000C943E000C943E000C943E000C943E0058
:100030000C943E000C943E000C943E000C943E0048
:100040000C943E000C943E000C943E000C943E0038
:100050000C943E000C943E000C943E000C943E0028
:100060000C943E000C943E0011241FBECFEFD8E04C
:10007000DEBFCDBF0E9440000C9465000C940000D0
:1000800084B1806284B984B5826084BD85B58160A5
:1000900085BD85B5826085BD16BC8CED87BD85B3F9
:1000A000826085BB95B180E2892785B920E030E088
:1000B00007C0A99BFECF85B3826085BB2F5F3F4FF2
:0E00C000223386E13807ACF3EDCFF894FFCF82
:00000001FF
