:100000000C9434000C943E000C943E000C943E0082
:100010000C943E000C943E000C943E000C943E0068
:100020000C943E000C943E000C943E000C943E0058
:100030000C943E000C943E000C943E000C943E0048
:100040000C943E000C943E000C943E000C943E0038
:100050000C943E000C943E000C943E000C943E0028
:100060000C943E000C943E0011241FBECFEFD8E04C
:10007000DEBFCDBF0E9440000C9455000C940000E0
:100080008AB180648AB984B5826084BD84B5816098
:1000900084BD84B5806884BD85B5816085BD85B526
:0E00A000826085BD8BE787BDEECFF894FFCF61
:00000001FF
