:100000000C9434000C943E000C943E000C943E0082
:100010000C943E000C943E000C943E000C943E0068
:100020000C943E000C943E000C943E000C943E0058
:100030000C943E000C943E000C943E000C943E0048
:100040000C943E000C943E000C943E000C943E0038
:100050000C943E000C943E000C943E000C943E0028
:100060000C943E000C943E0011241FBECFEFD8E04C
:10007000DEBFCDBF0E9454000C947F000C940000A2
:10008000813049F028F0823049F0833051F00895F2
:1000900080E487BD089580E887BD089580EC87BD22
:1000A00008958FEF87BD08958AB180648AB98AB1B7
:1000B0008B7F8AB98BB184608BB984B5836084BD32
:1000C00084B5806884BD85B5836085BD80E00E946D
:1000D0004000C0E04A99FECF2FEF81EE94E021501E
:1000E00080409040E1F700C00000CF5FC43008F0CE
:1000F000C0E08C2F0E9440004A9BFECFEBCFF894CB
:02010000FFCF2F
:00000001FF
