S00C0000494E54302E73726563FD
S11300000C9434000C9440000C943E000C943E007C
S11300100C943E000C943E000C943E000C943E0064
S11300200C943E000C943E000C943E000C943E0054
S11300300C943E000C943E000C943E000C943E0044
S11300400C943E000C943E000C943E000C943E0034
S11300500C943E000C943E000C943E000C943E0024
S11300600C943E000C943E0011241FBECFEFD8E048
S1130070DEBFCDBF0E945D000C9470000C940000A4
S11300801F920F920FB60F9211242F938F939F9369
S113009095B180E2892785B92FEF83ED90E3215054
S11300A080409040E1F700C000009F918F912F9114
S11300B00F900FBE0F901F90189584B1806284B981
S11300C08AB18B7F8AB98BB184608BB98DB381601F
S11300D08DBBE9E6F0E08081826080837894FFCF75
S10700E0F894FFCFBE
S9030000FC
