S00F00005350495F4C45442E73726563F5
S11300000C9434000C943E000C943E000C943E007E
S11300100C943E000C943E000C943E000C943E0064
S11300200C943E000C943E000C943E000C943E0054
S11300300C943E000C943E000C943E000C943E0044
S11300400C943E000C943E000C943E000C943E0034
S11300500C943E000C943E000C943E000C943E0024
S11300600C943E000C943E0011241FBECFEFD8E048
S1130070DEBFCDBF0E9440000C946E000C940000C3
S113008084B18D6284B984B18F7E84B981E58CBDDD
S11300908CB5837F8CBD85B18B7F85B980ED8EBD9A
S11300A00DB407FEFDCF8EB585B1846085B985B1E9
S11300B08B7F85B91EBC0DB407FEFDCF8EB5883588
S11300C021F485B1816085B903C085B18E7F85B97E
S11300D085B1846085B980E090E00895F894FFCFFD
S9030000FC
