S02200006175746F5F636F6F6C696E675F4C4D33355F44435F4D4F544F522E73726563C9
S11300000C9434000C943E000C943E000C943E007E
S11300100C943E000C943E000C943E000C943E0064
S11300200C943E000C943E000C943E000C943E0054
S11300300C943E000C943E000C943E000C943E0044
S11300400C943E000C943E000C943E000C943E0034
S11300500C943E000C943E000C943E000C943E0024
S11300600C943E000C943E0011241FBECFEFD8E048
S1130070DEBFCDBF0E9488000C94BB000C9400002E
S1130080ECE7F0E0808180648083EAE7F0E080813F
S1130090806880838081876080830895ECE7F0E046
S11300A08081807F8083EAE7F0E0808180648083C0
S11300B080917A0086FDFCCF8091790090E0982FA2
S11300C0882720917800822B08950E944E0024EF07
S11300D031E0AC01429FC001439F900D529F900DAF
S11300E01124892F8695869590E008958E31910587
S11300F038F08832910530F0C29730F480EC0895DE
S113010080E4089580E808958FEF089587BD0895E9
S11301108AB180648AB98AB18B7F8AB98BB18460D1
S11301208BB90E94400084B5806884BD84B5836027
S113013084BD85B5836085BDC0E04A9911C02FEFA9
S113014081EE94E0215080409040E1F700C000002F
S11301504A9906C081E0C11180E0C82F4A9BFECFB6
S1130160CC2339F00E9465000E9476000E9486002C
S10D0170E4CF17BCE2CFF894FFCFF0
S9030000FC
