S01A0000342D6269742062696E61727920636F756E742E737265637C
S11300000C9434000C943E000C943E000C943E007E
S11300100C943E000C943E000C943E000C943E0064
S11300200C943E000C943E000C943E000C943E0054
S11300300C943E000C943E000C943E000C943E0044
S11300400C943E000C943E000C943E000C943E0034
S11300500C943E000C943E000C943E000C943E0024
S11300600C943E000C943E0011241FBECFEFD8E048
S1130070DEBFCDBF0E9442000C9463000C940000CC
S113008085B908958FE084B98AB18B7F8AB98BB121
S113009084608BB980E00E944000C0E04A99FECFA2
S11300A0CF5F8C2F0E944000C03108F0C0E02FEFDA
S11300B083EC99E0215080409040E1F700C00000BB
S10D00C04A9BFECFEBCFF894FFCF6C
S9030000FC
