S017000070726F6A6563745F747261666669632E73726563D8
S11300000C9434000C943E000C943E000C943E007E
S11300100C943E000C943E000C943E000C943E0064
S11300200C943E000C943E000C943E000C943E0054
S11300300C943E000C943E000C943E000C943E0044
S11300400C943E000C943E000C943E000C943E0034
S11300500C943E000C943E000C943E000C943E0024
S11300600C943E000C943E0011241FBECFEFD8E048
S1130070DEBFCDBF0E9440000C948F000C940000A2
S113008084B1806284B98AB18B7F8AB98BB1846070
S11300908BB9E9E6F0E080818260808380818E7F85
S11300A080838DB381608DBB8DB382608DBB78946A
S11300B084B1806284B984B1846084B987B1806278
S11300C087B987B1846087B985B1806285B985B104
S11300D08B7F85B988B18F7D88B988B1846088B9F0
S11300E02FEF87EA91E6215080409040E1F700C06D
S11300F0000085B18F7D85B985B1846085B988B1EB
S1130100806288B988B18B7F88B92FEF87EA91E63E
S1130110215080409040E1F700C00000D5CFF89412
S1050120FFCF0B
S9030000FC
