:100000000C9434000C946B000C9446000C94460045
:100010000C9446000C9446000C9446000C94460048
:100020000C9446000C9446000C9446000C94460038
:100030000C9446000C9446000C9446000C94460028
:100040000C9446000C9446000C9446000C94460018
:100050000C9446000C9446000C9446000C94460008
:100060000C9446000C94460011241FBECFEFD8E03C
:10007000DEBFCDBF21E0A0E0B1E001C01D92A23003
:10008000B207E1F70E947F000C94D5000C940000A9
:1000900080E090E008C016BC21E025BB23E025BD30
:1000A000A89BFECF0196813D23E09207A0F308951F
:1000B0000F931F93CF93DF938C01C0E0D0E003C078
:1000C0000E9448002196C017D107D0F3DF91CF914D
:1000D0001F910F9108951F920F920FB60F92112446
:1000E0008F939F9381E090E09093010180930001B2
:1000F0009F918F910F900FBE0F901F90189584B114
:10010000876084B98AB18B7F8AB98BB184608BB9DF
:1001100081E08DBBE9E6F0E082E0808380818E7F24
:100120008083789481E085B98AE090E00E9458004D
:100130008091000190910101892B51F081E085B9F6
:100140008AE090E00E945800109201011092000194
:1001500082E085B983E090E00E9458008091000120
:1001600090910101892B51F081E085B98AE090E0FE
:100170000E945800109201011092000184E085B99C
:100180008AE090E00E945800809100019091010166
:10019000892B41F281E085B98AE090E00E94580005
:0E01A0001092010110920001BDCFF894FFCF24
:00000001FF
