:100000000C9434000C9449000C9449000C94490061
:100010000C9449000C9449000C9449000C9449003C
:100020000C9449000C9449000C9449000C9449002C
:100030000C9449000C9449000C9449000C9449001C
:100040000C9449000C9449000C9449000C9449000C
:100050000C9449000C9449000C9449000C944900FC
:100060000C9449000C94490011241FBECFEFD8E036
:10007000DEBFCDBF11E0A0E0B1E0E2E2F1E002C0FE
:1000800005900D92A830B107D9F70E945B000C943F
:100090008F000C94000087E68093C4001092C50086
:1000A000E1ECF0E0808188608083E2ECF0E0808128
:1000B000866080830895CF93DF93CDB7DEB727970F
:1000C0000FB6F894DEBF0FBECDBF87E0E0E0F1E0F1
:1000D000DE01119601900D928A95E1F70E944B0086
:1000E00020E030E012C0E0ECF0E08081807280839C
:1000F0008823C9F3E1E0F0E0EC0FFD1FE20FF31FEE
:1001000080818093C6002F5F3F4FE1E0F0E0EC0F6D
:10011000FD1FE20FF31F80818111E5CFE1CFF8943D
:02012000FFCF0F
:0801220068656C6C6F0A0000B7
:00000001FF
